:020000040800F2
:100000000010002065160008290300082B030008D3
:100010002F03000833030008370300080000000026
:100020000000000000000000000000003B0300088A
:100030003D030008000000003F0300087D16000893
:100040007F1600087F1600087F1600087F1600083C
:100050007F1600087F1600087F1600087F1600082C
:100060007F1600087F1600087F1600087F1600081C
:100070007F1600087F1600087F1600087F1600080C
:100080007F1600087F1600087F1600087F160008FC
:100090007F1600087F1600087F1600087F160008EC
:1000A0007F1600087F1600087F1600087F160008DC
:1000B0007F1600087B0500087F1600087F160008E1
:1000C0007F1600087F1600087F1600087F160008BC
:1000D0007F160008953600087F16000837060008CE
:1000E0007F1600087F1600087F16000800F002F84F
:1000F00000F06FF80AA090E8000C82448344AAF153
:100100000107DA4501D100F064F8AFF2090EBAE850
:100110000F0013F0010F18BFFB1A43F0010318473B
:10012000647900008479000010F8013B0A4413F060
:10013000030408BF10F8014B1D1108BF10F8015B44
:10014000641E05D010F8016B641E01F8016BF9D133
:10015000002D15D010F8014B03F00C030C2BA1EB74
:1001600004040ABF10F8013BA4EB8314A4EB03249E
:1001700005F1010314F8016B5B1E01F8016BF9D561
:10018000914238BF10F8013BD1D3704700230024BF
:1001900000250026103A28BF78C1FBD8520728BF97
:1001A00030C148BF0B607047642905F08586782907
:1001B00005F0BE86002070471FB506F0EBF804007E
:1001C0000020002106F080F9401C60601FBD10B5C2
:1001D00010BD06F003F91146FFF7EEFF00F008F836
:1001E00006F021F903B4FFF7F2FF03BC03F0ECF9CA
:1001F00008B503F07FF94FF4A06001F053FA00F066
:1002000095FB01F067F900F0F2FC40F2E73147207E
:1002100000F086F940F2CF2140F2CF7000F020FAD2
:100220001221354805F0F4FF4FF4165000F0B4F9F0
:1002300004F04BFD012004F05FFD10232FA20221EA
:10024000002000F0AEFD00BF00F049FB0028FBD10C
:1002500051E0012000F0B0FB2A4908801020032360
:100260000090084602880221462000F056FD00F06A
:10027000FAFA25490870102324A20621502000F024
:1002800090FD1020032300901F480278062167206C
:1002900000F043FD00F0ABFA1D49087010231DA2C9
:1002A0000421502000F07DFD102003230090184809
:1002B00002780421672000F030FD124800881649BA
:1002C0000968884203DD01201449086002E000202B
:1002D0001249086003F0CEFA074804F046FF1048C0
:1002E0000068012802D100F0F8F904E040F29971A9
:1002F0000C4802F091FEACE7010800204D51323A63
:1003000000000000080000201100002048554D00AA
:1003100010000020544D50000C000020040000206C
:100320000000002000080040704700BFFEE700BF4B
:10033000FEE700BFFEE700BFFEE77047704770476B
:100340000CB50020019000906C48006840F48030AB
:100350006A49086000BF6948006800F400300090F6
:100360000198401C0190009818B90198B0F5A06F51
:10037000F1D16248006800F4003010B10120009013
:1003800001E0002000900098012843D15C480068FB
:1003900040F010005A4908600846006820F0030049
:1003A00008600846006840F0020008605348406852
:1003B000524948600846406848600846406840F432
:1003C000806048600846406820F47C104860084619
:1003D000406840F4E81048600846006840F08070CB
:1003E000086000BF4548006800F000700028F9D0A0
:1003F0004248406820F00300404948600846406891
:1004000040F00200486000BF3C48406800F00C002B
:100410000828F9D10CBD10B5FFF792FF10BD10B53B
:100420003648006840F001003449086008464068DA
:10043000344908403149486008460068324908405C
:100440002E4908600846006820F4802008600846AD
:10045000406820F4FE0048604FF41F008860FFF7FA
:10046000DAFF4FF000602949086010BD10B5002187
:1004700000200022214B5B6803F00C0121B104290C
:1004800006D0082928D107E0214B224C236027E021
:100490001F4B204C236023E0184B5B6803F4701063
:1004A000164B5B6803F48032022303EB904022B9C1
:1004B000194B4343174C23600DE0104B5B6803F46A
:1004C000003323B1144B4343124C236003E0104B21
:1004D0004343104C236003E00D4B0E4C236000BFE0
:1004E00000BF064B5B68C3F303130C4CE15C094B84
:1004F0001B68CB40074C236010BD00000010024079
:10050000002002400000FFF8FFFFF6FE08ED00E0CB
:1005100000127A001400002000093D00180000209D
:100520007FB505460C460121022001F052FCADF8D2
:100530000850ADF804400020ADF80A00ADF8060000
:1005400001A9144801F074FF01221146114802F07C
:10055000E6FA1D208DF8000000208DF80100032030
:100560008DF8020001208DF80300684601F09FF825
:100570000121084802F0B8FA7FBD10B501210548F5
:1005800002F07BFD28B10121024802F087FD03F053
:100590009AF910BD0004004010B586B00446012150
:1005A000082001F009FC0121880401F012FC4FF43D
:1005B0008060ADF8140003208DF8160018208DF827
:1005C000170005A9244801F03BF94FF40060ADF88D
:1005D000140004208DF8170005A91F4801F030F918
:1005E00027208DF8000003208DF801008DF802000F
:1005F00001208DF80300684601F059F801940020AD
:10060000ADF80800ADF80A00ADF80C00ADF8100028
:100610000C20ADF80E0001A9104801F074FC012275
:1006200040F225510D4801F006FD01210B4801F073
:10063000F6FC06B010BD08B540F22551074801F0A0
:10064000DFFD40B1054801F05BFDC0B20090012123
:10065000684603F0FFF908BD000C01400048004067
:1006600030B589B005460C460121042001F0B1FBEC
:100670000121082001F0A0FB18208DF82300402064
:10068000ADF8200003208DF8220008A9164801F0DB
:10069000D7F8ADF81850ADF814400020ADF81A00A6
:1006A000ADF8160005A9114801F0C2FE7020ADF8A2
:1006B00004000120ADF806000020ADF80C0001A9EF
:1006C0000A4801F0F2FE0821084802F03DFB012132
:1006D000064802F009FA09B030BD10B540F2D66103
:1006E000024802F099FC10BD000C014000080040D7
:1006F00010B58A48006820F47040884908600846B0
:10070000006840F4405008600020854908601420CB
:1007100002F02DFF01208349C1F8AC011E2002F038
:1007200002FF10BD10B500247C48006820F4704022
:100730007A4908600846006840F40040086004E018
:10074000601CC4B2012002F0EEFE754880380068DB
:1007500008B1642CF4DB642C01DB012010BD002403
:1007600004E0601CC4B2012002F0DDFE6C48803859
:10077000006808B9642CF4DB642C01DB0120EDE790
:100780000020EBE710B5002404E0601CC4B2012097
:1007900002F0C9FE62488038006808B1642CF4DBBE
:1007A000002404E0601CC4B2012002F0BCFE5C48DE
:1007B0008038006808B9642CF4DB282002F0B3FE0E
:1007C00057488038006808B1012010BD0020FCE7C0
:1007D00070B50024002506E06006040EFFF7D2FF86
:1007E0000443681CC5B2082DF6DB204670BD2DE918
:1007F000FC47FFF77DFFFFF795FF70BB002405E086
:10080000FFF7E6FF0DF80400601CC4B2052CF7DB0F
:100810009DF800009DF8011008449DF8021008445E
:100820009DF8031008449DF80410884219D19DF8E2
:10083000030006F04FFB81463B4906F035FA0746B8
:100840009DF8020006F046FB8046394606F0BEF9E8
:10085000064606F01FFBC5B203E0FFE70120BDE836
:10086000FC872846FBE72DE9FC47FFF741FFFFF730
:1008700059FF70BB002405E0FFF7AAFF0DF8040044
:10088000601CC4B2052CF7DB9DF800009DF8011038
:1008900008449DF8021008449DF8031008449DF890
:1008A0000410884219D19DF8010006F013FB81461F
:1008B0001D4906F0F9F907469DF8000006F00AFB0D
:1008C0008046394606F082F9064606F0E3FAC5B2DC
:1008D00003E0FFE70120BDE8FC872846FBE708B5F9
:1008E0000121042001F068FA4FF40060ADF8000027
:1008F00010208DF8030003208DF802006946074898
:10090000001F00F09DFF4FF400610448001F01F03C
:1009100044F8FFF7EDFEFFF705FF08BD04080140AE
:10092000AC012142000021420000C84200B587B05E
:100930000121480201F040FA0121042001F03CFAB3
:100940004FF4004001F09CF900208DF81B000320BB
:10095000ADF818008DF81A0006A9244800F070FFC1
:10096000002001904FF4006004904FF46020039049
:1009700000208DF809008DF8080001208DF8140082
:1009800001A91B4802F0B5FB0121194802F0DDFB6B
:10099000174802F0FCFB00BF154802F0FDFB0128E0
:1009A000FAD0134802F002FC00BF114802F003FC29
:1009B0000128FAD007B000BD70B504460523012216
:1009C00021460B4802F02DFC0121094802F0FDFBF5
:1009D00000BF0221064802F069FD0028F9D0044852
:1009E00002F086FC05462D12284670BD0008014025
:1009F00000240140002100E0491C8142FCD37047E3
:100A000010B58021FA4800F0C8FF4FF48071F84813
:100A100000F0C3FF4FF48071F54800F0C0FF802163
:100A2000F34800F0BCFF10BD10B58021F04800F085
:100A3000B4FF4FF48071EE4800F0B1FF4FF48071C5
:100A4000EB4800F0AAFF10BD10B58021E84800F087
:100A5000A4FF8021E64800F0A2FF10BD2DE9F0417F
:100A600005462C468021E24800F099FF00261AE056
:100A7000274607F08007802F04D17900DC4800F07A
:100A80008CFF04E04FF48071D94800F088FF6006C5
:100A9000040E8021D64800F080FF8021D44800F069
:100AA0007EFF701CC6B2082EE2DBBDE8F08110B5F7
:100AB0000446FFF7A5FF7820FFF7D0FFFFF7C4FF3C
:100AC0000020FFF7CBFFFFF7BFFF2046FFF7C6FF71
:100AD000FFF7BAFFFFF7A8FF10BD10B50446FFF7F8
:100AE0008FFF7820FFF7BAFFFFF7AEFF4020FFF738
:100AF000B5FFFFF7A9FF2046FFF7B0FFFFF7A4FF00
:100B0000FFF792FF10BD70B504460D461DB1E0B26F
:100B1000FFF7E3FF02E0E0B2FFF7C9FF70BD70B579
:100B20000646002418E004F1B0000021FFF7EBFFB7
:100B300000210846FFF7E7FF00211020FFF7E3FF41
:100B4000002505E001213046FFF7DDFF681CC5B236
:100B5000802DF7DB601CC4B2082CE4DB70BD06E01E
:100B600041F6650100E0491E0029FCD1401E002825
:100B7000F6D17047014605E0002001E0421CD0B2EA
:100B80007B28FBDB0A1EA1F10101F5D1704770B58E
:100B900004460D4605F1B0000021FFF7B4FF102117
:100BA00041EA14100021FFF7AEFF04F00F0000210E
:100BB000FFF7A9FF70BD10B500218D20FFF7A3FF3F
:100BC00000211420FFF79FFF0021AF20FFF79BFFBC
:100BD00010BD10B500218D20FFF795FF00211020DA
:100BE000FFF791FF0021AE20FFF78DFF10BD70B51C
:100BF000002418E004F1B0000021FFF784FF002179
:100C00000846FFF780FF00211020FFF77CFF00253A
:100C100005E001210020FFF776FF681CC5B2802D9A
:100C2000F7DB601CC4B2082CE4DB70BD70B5002497
:100C300018E004F1B0000021FFF765FF002108462D
:100C4000FFF761FF00211020FFF75DFF002505E0A1
:100C500001210846FFF757FF681CC5B2802DF7DB5E
:100C6000601CC4B2082CE4DB70BD2DE9F0470746D8
:100C70000E469046994600250024A8F12000C5B2F2
:100C80007F2F02DD0027B01CC6B2B9F1100F24D1AE
:100C900031463846FFF77BFF002408E004EB0511DE
:100CA000544A505C0121FFF72EFF601CC4B2082C8F
:100CB000F4DB701CC1B23846FFF769FF002409E07D
:100CC00004EB051108314B4A505C0121FFF71BFF73
:100CD000601CC4B2082CF3DB12E031463846FFF743
:100CE00056FF00240AE005EB4501434A02EB4101AF
:100CF000085D0121FFF707FF601CC4B2062CF2DB80
:100D0000BDE8F08710B50246012000E050430B1EFD
:100D1000A1F10104E1B2F9D110BD2DE9FF5F074651
:100D200091461E460E9D4FF0000A002435E0301B10
:100D3000401EC1B20A20FFF7E5FFB9FBF0F00A211F
:100D4000B0FBF1F201FB1208BAF1000F14D1701ED2
:100D5000A04211DDB8F1000F0CD1AB4605EBDB7101
:100D6000491001FB0471C8B22B4620220199FFF7FC
:100D70007CFF10E04FF0010AAB4605EBDB71491038
:100D800001FB0471C8B208F13001CAB22B460199C7
:100D9000FFF76BFF00BF601CC4B2B442C7DBBDE805
:100DA000FF9F2DE9F04105460E4614461F460EE012
:100DB00022783B4631462846FFF757FF05F10800E9
:100DC000C5B2782D02DD0025B01CC6B2641C2078A7
:100DD0000028EDD1BDE8F0812DE9F04180460F46B5
:100DE00015461E4639464046FFF7D1FE00240DE069
:100DF000000C0140A87300088071000806EB451143
:100E0000085D0121FFF77FFE601CC4B2102CF5DBEA
:100E1000781CC1B24046FFF7BAFE002409E0690021
:100E2000491C06EB0111085D0121FFF76CFE601CF7
:100E3000C4B2102CF3DBBDE8F0812DE9F05F06466B
:100E40000F4690461C46DDF828A04FF0000BE11736
:100E500004EB5171C910A4EBC10131B92046E1176F
:100E600004EB5171C1F3C70506E02046E11704EB1E
:100E70005171C910491CCDB23D4615E02946304696
:100E8000FFF785FEB1460BE059460BF1010B1AF84E
:100E900001000121FFF737FE09F1010000F0FF0911
:100EA000C145F1DB681CC5B2A542E7DBBDE8F09F98
:100EB0002DE9FF5F86B014461D464FF0010A002061
:100EC0000390049005904FF00109002600BF83466F
:100ED000002213462046294605F048FC09D285F039
:100EE0000040CDE900402046019905F0B7FB0646D9
:100EF00004E02046294605F0B1FB0646304605F0E1
:100F00000AFC22462B46CDE9000105F069FD0746A3
:100F100088460022FE4B3846414605F063FCCDE989
:100F2000000105F0CBFB834607E009EB89004FEA9F
:100F300040090AF1010000F0FF0A0A2096FBF0F0D8
:100F400090FBF9F00028F0D142F2107096FBF0F01F
:100F50000A2190FBF1F201FB1200C0B28DF80C00E7
:100F60004FF47A7096FBF0F090FBF1F201FB120067
:100F7000C0B28DF80D00642096FBF0F090FBF1F20A
:100F800001FB1200C0B28DF80E000A2096FBF0F0B3
:100F900090FBF1F201FB1200C0B28DF80F000A20A5
:100FA00096FBF0F100FB1160C0B28DF810002E200E
:100FB0008DF811004FF47A70BBFBF0F00A21B0FB02
:100FC000F1F201FB12008DF812006420BBFBF0F07F
:100FD000B0FBF1F201FB12008DF813000A20BBFBFD
:100FE000F0F0B0FBF1F201FB12008DF814000A20C2
:100FF000BBFBF0F100FB11B08DF815000021149837
:10100000801D03AA1154894608E003A810F80900BE
:10101000303003A901F8090009F10109B9F10A0FFB
:10102000F3DB002213462046294605F09FFB08D239
:101030000AF1010000F0FF0A2D20CAF1050103AA00
:1010400050542E208DF8110000211498801D03AA01
:101050001154CAF1050003A942181023DDE9061056
:10106000FFF79FFE0AB0BDE8F09F2DE9F04F89B071
:101070008246894617469846DDF84CB00120079015
:1010800000200490059006900124002500BF002652
:101090004FEAC9604FEA10693846414605F0DEFA6A
:1010A0000546284605F04EFB3A464346CDE9000189
:1010B00005F096FCCDE902010022954BDDE9020125
:1010C00005F090FBCDE9000105F0F8FA064606E0D0
:1010D00004EB840044000798401CC0B207900A202B
:1010E000B5FBF0F0B0FBF4F00028F1D142F2107043
:1010F000B5FBF0F00A21B0FBF1F201FB12008DF814
:1011000010004FF47A70B5FBF0F0B0FBF1F201FB88
:1011100012008DF811006420B5FBF0F0B0FBF1F285
:1011200001FB12008DF812000A20B5FBF0F0B0FBB5
:10113000F1F201FB12008DF813002E208DF815003E
:101140004FF47A70B6FBF0F0B0FBF1F201FB120045
:101150008DF816006420B6FBF0F0B0FBF1F201FB55
:1011600012008DF817000A20B6FBF0F0B0FBF1F288
:1011700001FB12008DF818000A20B6FBF0F100FB0D
:1011800011608DF8190000210BF1060004AA11541A
:10119000002405E004A8005D303004A90855641C53
:1011A0000A2CF7DB2E208DF8150000210BF106002C
:1011B00004AA11541298C0F1050004A942180C2386
:1011C00051464846FFF7EDFD09B0BDE8F08F2DE927
:1011D000F04105460F46164600BF05EB450149069E
:1011E000080E3946FFF7D3FC00240BE006F110018E
:1011F00001EB4101474A02EB4101085D0121FFF784
:1012000082FC641C062CF1DBBDE8F0812DE9F04185
:1012100005460F46164600BF05EB45014906080E78
:101220003946FFF7B4FC002409E006EB4601394AD1
:1012300002EB4101085D0121FFF765FC641C062CEF
:10124000F3DBBDE8F0812DE9F047054689461646F7
:101250003446002C22DA6442642094FBF0F100FB57
:1012600011400A2190FBF1F0C7B20A2094FBF0F183
:1012700000FB114000F0FF080D2249462846FFF709
:10128000C5FF691CC8B23A464946FFF7A0FFA91C32
:10129000C8B242464946FFF79AFF20E0642094FB1B
:1012A000F0F100FB11400A2190FBF1F0C7B20A20D7
:1012B00094FBF0F100FB114000F0FF080B224946BF
:1012C0002846FFF7A3FF691CC8B23A464946FFF714
:1012D0007EFFA91CC8B242464946FFF778FFBDE829
:1012E000F0872DE9F04705468A4616463446002C1D
:1012F00033DA64420D2251462846FFF787FF0A2061
:1013000094FBF0F100FB1140C7B20A2004E000009A
:101310000088C3408071000894FBF0F00A2190FB24
:10132000F1F201FB120000F0FF08642094FBF0F0E2
:1013300000F0FF09E91CC8B23A465146FFF747FFE3
:10134000A91CC8B242465146FFF741FF691CC8B20A
:101350004A465146FFF73BFF2BE00B2251462846F9
:10136000FFF754FF0A2094FBF0F100FB1140C7B2D5
:101370000A2094FBF0F00A2190FBF1F201FB12002D
:1013800000F0FF08642094FBF0F000F0FF09E91C76
:10139000C8B23A465146FFF71AFFA91CC8B24246E6
:1013A0005146FFF714FF691CC8B24A465146FFF781
:1013B0000EFFBDE8F0872DE9F05F05468B46164627
:1013C0003446002C00DA64424FF47A7094FBF0F05B
:1013D000C7B24FF47A7094FBF0F100FB1140642126
:1013E00090FBF1F000F0FF08642094FBF0F100FBAB
:1013F00011400A2190FBF1F000F0FF090A2094FB54
:10140000F0F100FB114000F0FF0A3A465946284629
:10141000FFF7DDFE691CC8B242465946FFF7D7FE0A
:10142000A91CC8B24A465946FFF7D1FEE91CC8B20A
:1014300052465946FFF7CBFEBDE8F09F2DE9F05F1D
:1014400005460E46144642F21070B4FBF0F0C7B2E7
:1014500042F21070B4FBF0F100FB11404FF47A71CE
:10146000B0FBF1F000F0FF080846B4FBF0F100FB20
:1014700011406421B0FBF1F000F0FF096420B4FBDF
:10148000F0F100FB11400A21B0FBF1FA0A20B4FB95
:10149000F0F100FB114B3A4631462846FFF797FE24
:1014A000691CC8B242463146FFF791FEA91CC8B27A
:1014B0004A463146FFF78BFEE91CC8B25246314618
:1014C000FFF785FE291DC8B25A463146FFF77FFE59
:1014D000BDE8F09F08B50121092000F06DFC012155
:1014E0005C4800F07EFA4FF4C070ADF800001020A8
:1014F0008DF8030003208DF802006946564800F07D
:101500009FF94FF4C071544800F047FA44F6206048
:10151000FFF770FA0021AE20FFF7F5FA0021084628
:10152000FFF7F1FA00211020FFF7EDFA002140202B
:10153000FFF7E9FA0021B020FFF7E5FA002181204A
:10154000FFF7E1FA0021FF20FFF7DDFA0021A120DB
:10155000FFF7D9FA0021A620FFF7D5FA0021A8202D
:10156000FFF7D1FA00213F20FFF7CDFA0021C82074
:10157000FFF7C9FA0021D320FFF7C5FA002108467A
:10158000FFF7C1FA0021D520FFF7BDFA0021802026
:10159000FFF7B9FA0021D820FFF7B5FA002105209E
:1015A000FFF7B1FA0021D920FFF7ADFA0021F120B1
:1015B000FFF7A9FA0021DA20FFF7A5FA002112208F
:1015C000FFF7A1FA0021DB20FFF79DFA0021302070
:1015D000FFF799FA00218D20FFF795FA00211420DA
:1015E000FFF791FA0021AF20FFF78DFA08BD10B583
:1015F0001A4B002204215A20FFF7EEFB10BD00B564
:1016000091B04022164901A804F0D0FD01AB0022A0
:1016100006215020FFF7E0FB01AB012206216020EC
:10162000FFF7DAFB11B000BD00B591B040220C49C4
:10163000403101A804F0BAFD01AB00220621502080
:10164000FFF7CAFB01AB012206216020FFF7C4FBB4
:1016500011B000BD00023000000C0140C8040020A1
:10166000987900080948804709480047FEE7FEE7E7
:10167000FEE7FEE7FEE7FEE7FEE7FEE7FEE7FEE742
:1016800004480549054A064B704700001F0400083E
:10169000ED000008000A002000100020000C0020CF
:1016A000000C002031490143314A1160704770B588
:1016B000002100230F22C47804B32D4C246804F4C5
:1016C000E064C4F5E064210AC1F10403CA4044782F
:1016D00004FA03F18478144021430901254C06786B
:1016E000A155047804F01F050124AC4005786D1164
:1016F000AD0005F1E025C5F8004109E0047804F0EB
:101700001F050124AC401C4D0678761145F8264093
:1017100070BD1A4A0A400243154B1B1F1A607047DE
:1017200039B1134A121D12680243114B1B1D1A6076
:1017300006E00F4A121D126882430D4B1B1D1A60F2
:101740007047042808D14FF0E021096941F00401F5
:101750004FF0E022116107E04FF0E021096921F02C
:1017600004014FF0E0221161704700000000FA050B
:101770000CED00E000E400E080E100E080FFFF1FEE
:1017800010B50446CC48844208D10121042000F061
:101790002DFB0021042000F029FB46E0C7488442CD
:1017A00008D10121082000F021FB0021082000F0D1
:1017B0001DFB3AE0C248844208D10121102000F00C
:1017C00015FB0021102000F011FB2EE0BD488442E3
:1017D00008D10121202000F009FB0021202000F089
:1017E00005FB22E0B848844208D10121402000F0E6
:1017F000FDFA0021402000F0F9FA16E0B3488442D7
:1018000008D10121802000F0F1FA0021802000F0B1
:10181000EDFA0AE0AE48844207D10121801500F0BC
:10182000E5FA0021A01500F0E1FA10BD10B5012184
:10183000084600F0DBFA0021012000F0D7FA10BDC5
:101840002DE9F04102460025002600200023002457
:10185000002791F803C00CF00F0591F803C00CF0BD
:10186000100CBCF1000F03D091F802C04CEA050542
:1018700091F800C0BCF1000F31D0146800202BE0BB
:101880004FF0010C0CFA00F3B1F800C00CEA0306AB
:101890009E4220D183004FF00F0C0CFA03F7BC439B
:1018A00005FA03FC4CEA040491F803C0BCF1280FCC
:1018B00006D14FF0010C0CFA00FCC2F814C00AE08B
:1018C00091F803C0BCF1480F05D14FF0010C0CFAA0
:1018D00000FCC2F810C0401C0828D1D31460B1F835
:1018E00000C0BCF1FF0F34DD546800202EE000F191
:1018F000080C4FF0010808FA0CF3B1F800C00CEA2C
:1019000003069E4221D183004FF00F0C0CFA03F71F
:10191000BC4305FA03FC4CEA040491F803C0BCF193
:10192000280F05D100F1080C08FA0CF8C2F8148051
:1019300091F803C0BCF1480F07D100F1080C4FF03B
:10194000010808FA0CF8C2F81080401C0828CED311
:101950005460BDE8F0814FF6FF7101800221817073
:101960000421C17070470246002093680B400BB100
:10197000012000E0002070470146886880B270476F
:1019800002460020D3680B400BB1012000E000208C
:1019900070470146C86880B2704701617047416175
:1019A00070470AB1016100E041617047C160704752
:1019B0004FF480320A438261816182618269826967
:1019C000704702460020434B18684FF6807318405A
:1019D00040EA021008433F4B186070473E49C86117
:1019E0007047F0B50A46002300240021002500F0CE
:1019F0000046B6F1004F02D1364EF16901E0354E96
:101A00007168C0F3034583B200F44016B6F5401F79
:101A100008D121F070612F4E766826F070662D4F48
:101A20007E6012E000F48016B6F5801F06D1032612
:101A300006FA05F4A14341F0706106E0460D360157
:101A400003FA06F6B14341F0706122B1460D36014A
:101A500003FA06F6314300F00046B6F1004F02D11A
:101A60001C4EF16101E01B4E7160F0BD30B50022EB
:101A70008B071C0F0F2303FA04F2164B08338C104C
:101A800053F824309343134C08348D1044F8253018
:101A900023468C1053F824308C07240F00FA04F4EA
:101AA00023430C4C08348D1044F8253030BD0A49CE
:101AB000DC3108607047000000080140000C014064
:101AC000001001400014014000180140001C0140BA
:101AD000002001400000014000002042DF48006873
:101AE00040F00100DD49086008464068DC490840D4
:101AF000DA49486008460068DA490840D749086072
:101B00000846006820F4802008600846406820F4F9
:101B1000FE0048604FF41F0088607047CF49096895
:101B200021F48031CD4A11601146096821F48021E9
:101B30001160B0F5803F03D0B0F5802F0ED106E0E4
:101B4000C649096841F48031C44A116007E0C349BD
:101B5000096841F4A021C14A116000E000BF00BF44
:101B6000704710B501460022002300204A11012AC7
:101B700002D1BA4C236806E0022A02D1B74C236A8C
:101B800001E0B64C636A01F01F02012494401C403E
:101B90000CB1012000E0002010BD38B500200090FD
:101BA0000024002500BF3120FFF7DBFF0546009829
:101BB000401C00900098B0F5A06F01D0002DF2D02D
:101BC0003120FFF7CEFF08B1012400E000242046B9
:101BD00038BD01460020A14A106820F0F80040EA14
:101BE000C10010607047A04908607047024600209D
:101BF0009A4B586820F47C1042EA01031843974B33
:101C00005860704798490866704701460020934A1B
:101C1000506820F003000843506070478F484068C8
:101C200000F00C007047014600208C4A506820F0FC
:101C3000F00008435060704701460020874A506812
:101C400020F4E06008435060704701460020834A5A
:101C5000506820F4605040EAC1005060704729B1DC
:101C60007E4A527A02437D4B5A7204E07B4A527A92
:101C700082437A4B5A7270477B49D831086070476B
:101C800001460020754A506820F4404008435060E7
:101C900070470021714A20321170704A82F820107A
:101CA000012802D004280AD104E001216B4A203225
:101CB000117005E00521694A2032117000E000BF73
:101CC00000BF70476949086070476449096A014369
:101CD000624A11627047654944390860704730B5FF
:101CE00000210022002400235C4D6D6805F00C01EA
:101CF00021B1042905D0082923D105E05C4D0560F8
:101D000022E05B4D05601FE0544D6D6805F47012D4
:101D1000524D6D6805F48034022505EB92421CB9E2
:101D2000544D554305600BE04C4D6D6805F400358E
:101D30001DB1504D5543056002E04D4D55430560C2
:101D400002E04B4D056000BF00BF444D6D6805F0DB
:101D5000F0010909484D6B5C0568DD4045603F4D69
:101D60006D6805F4E061090A434D6B5C4568DD4030
:101D700085603A4D6D6805F46051C90A3E4D6B5C53
:101D80004568DD40C560354D6D6805F44041890BFF
:101D90003A4D6B5CC568B5FBF3F5056130BD29B103
:101DA0002E4A526902432D4B5A6104E02B4A526974
:101DB00082432A4B5A61704729B1284A92690243EB
:101DC000264B9A6104E0254A92698243234B9A612B
:101DD000704729B1214AD2690243204BDA6104E0FD
:101DE0001E4AD26982431D4BDA61704729B11B4AF2
:101DF000D2680243194BDA6004E0184AD268824381
:101E0000164BDA60704729B1144A12690243134B2A
:101E10001A6104E0114A12698243104B1A6170473B
:101E200012494039086070470F49C86470470B4930
:101E3000C87170470948406A40F08070074948629D
:101E4000704701460020054A92680A400AB1012005
:101E500000E000207047014988727047001002407E
:101E60000000FFF8FFFFF6FE0000424280044242FD
:101E700000127A0000093D00880600209806002024
:101E800010B50446FB48844209D101218803FFF7BD
:101E9000ADFF00214FF48040FFF7A8FF32E0F64885
:101EA000844209D101214804FFF7ADFF00214FF41E
:101EB0000030FFF7A8FF25E0F048844209D1012156
:101EC0008804FFF7A0FF00214FF48020FFF79BFF5D
:101ED00018E0EB48844209D10121C804FFF793FFC1
:101EE00000214FF40020FFF78EFF0BE0E54884420D
:101EF00008D101210805FFF786FF00214FF480106B
:101F0000FFF781FF10BD2DE9F04786B005460E466C
:101F10000024A24600BFA1460027B08900B100BF3F
:101F20002F462C8A4CF6FF700440F08804432C8224
:101F3000AC894EF6F3100440B088318908437189AA
:101F400008430443AC81AC8A4FF6FF400440B0899B
:101F50000443AC8201A8FFF7C2FEC648874202D103
:101F6000DDF810A001E0DDF80CA0A88900F4004025
:101F700040B10AEBCA0000EB0A1031684900B0FB1F
:101F8000F1F807E00AEBCA0000EB0A10316889009B
:101F9000B0FBF1F86420B8FBF0F0040120096421E3
:101FA00001FB1089A88900F4004040B1322000EB09
:101FB000C900B0FBF1F000F00700044308E0322054
:101FC00000EB09106421B0FBF1F000F00F000443B6
:101FD0002C8106B0BDE8F0874FF416510160002156
:101FE0008180C18001810C21418100218181704764
:101FF00010B502460020108A4FF2FF0318400B88EC
:102000004C8823438C882343CC8823431843108275
:1020100010BD0021018041808180C180704721B1C5
:10202000828942F40052828104E082894DF6FF7376
:102030001A4082817047F0B503460024002600252F
:10204000002040F66A17B94200D100BF1846C1F31C
:10205000421401F01F06012707FA06F5012C01D1F1
:102060000C3004E0022C01D1103000E014301AB121
:1020700007682F43076002E00768AF430760F0BDC1
:102080001AB1838A0B43838202E0838A8B43838263
:102090007047028A4FF6F0731A400282028A0A439E
:1020A0000282704782894FF2FF731A4082818289CF
:1020B0000A438281704721B1828942F00202828103
:1020C00004E082894FF6FD731A4082817047028ACC
:1020D0004FF6DF731A400282028A0A430282704777
:1020E00021B1028A42F48042028204E0028A4BF665
:1020F000FF731A4002827047C1F308028280704762
:1021000001468888C0F308007047818941F00101C9
:1021100081817047028BD2B20283028B42EA012294
:1021200002837047028B02F47F420283028B0A43D0
:102130000283704721B1828A42F02002828204E049
:10214000828A4FF6DF731A408282704721B1828AF9
:1021500042F01002828204E0828A4FF6EF731A4046
:102160008282704721B1828A42F00802828204E0B2
:10217000828A4FF6F7731A408282704721B18289B2
:1021800042F40042828103E08289C2F30E0282811E
:10219000704721B1828A42F40062828204E0828A1E
:1021A0004FF2FF731A4082827047828A4FF6FB73A8
:1021B0001A408282828A0A438282704721B1828ACF
:1021C00042F00202828204E0828A4FF6FD731A40D6
:1021D0008282704702460020B1F5007F00D100BF27
:1021E00013880B400BB1012000E00020704701F480
:1021F0000072B2F5007F00D100BFCA430280704771
:1022000070B50246002400230025002040F66A161F
:10221000B14200D100BFC1F3421501F01F030126F6
:1022200006FA03F3012D02D19689334006E0022D10
:1022300002D1168A334001E0968A33400C120126FF
:1022400006FA04F41688344013B10CB1012000E002
:10225000002070BD10B50022002340F66A14A14290
:1022600000D100BF0A1201249440A3B2DC430480D1
:1022700010BD00000038014000440040004800400C
:10228000004C00400050004010B50446FE48844217
:1022900008D10121C014FFF7A9FD0021E014FFF7C8
:1022A000A5FDC4E0B4F1804F08D101210846FFF735
:1022B000AAFD00210120FFF7A6FDB8E0F348844203
:1022C00008D101210220FFF79EFD00210220FFF727
:1022D0009AFDACE0EE48844208D101210420FFF7CA
:1022E00092FD00210420FFF78EFDA0E0E948844222
:1022F00008D101210820FFF786FD00210820FFF703
:1023000082FD94E0E448844208D101211020FFF7C7
:102310007AFD00211020FFF776FD88E0DF48844237
:1023200008D101212020FFF76EFD00212020FFF7BA
:102330006AFD7CE0DA48844208D101214014FFF7AD
:1023400055FD00216014FFF751FD70E0D54884422F
:1023500009D10121C804FFF749FD00214FF40020F5
:10236000FFF744FD63E0D048844209D1012108050C
:10237000FFF73CFD00214FF48010FFF737FD56E0DA
:10238000CA48844209D101214805FFF72FFD0021E9
:102390004FF40010FFF72AFD49E0C548844208D1F8
:1023A00001214020FFF72FFD00214020FFF72BFDEA
:1023B0003DE0C048844208D101218020FFF723FD81
:1023C00000218020FFF71FFD31E0BB48844208D187
:1023D00001218015FFF717FD0021A015FFF713FD60
:1023E00025E0B648844209D101210804FFF7FEFC2C
:1023F00000214FF48030FFF7F9FC18E0B048844228
:1024000009D101214804FFF7F1FC00214FF400300D
:10241000FFF7ECFC0BE0AB48844208D101218804B3
:10242000FFF7E4FC00214FF48020FFF7DFFC10BD34
:1024300000220288944B98420ED0994B98420BD0C0
:10244000B0F1804F08D0914B984205D0904B984204
:1024500002D0904B984204D14FF68F731A404B88AC
:102460001A438D4B984207D08C4B984204D04FF6BC
:10247000FF431A40CB881A4302808B8883850B88E0
:102480000385814B98420BD0854B984208D08B4BEB
:10249000984205D08A4B984202D08A4B984201D18B
:1024A0000B7A038601238382704770B500240022D3
:1024B0000023058C4FF6FE7635400584028C838818
:1024C000048B4FF68F752C40B51E2C400D882C4385
:1024D000751E2A400D892A434D882A436A4DA84219
:1024E0000BD06F4DA84208D0744DA84205D0744D52
:1024F000A84202D0734DA84213D14FF6F7752A4077
:102500004D892A434FF6FB752A408D882A434FF6A2
:10251000FF652B404FF6FF552B408D892B43CD890E
:102520002B4383800483CD888586028470BD70B57B
:10253000002400220023058C4FF6EF7635400584F9
:10254000028C8388048B48F6FF752C404FF6FF45BC
:102550002C400D884FF6FF7606EA05252C434FF6F2
:10256000DF752A400D8906EA05152A434D8806EADB
:1025700005152A43444DA84202D0494DA8421DD119
:102580004FF67F752A404D894FF6FF7606EA05150E
:102590002A434FF6BF752A408D8806EA05152A435F
:1025A0004FF6FF352B404FF2FF752B408D8906EA21
:1025B00085052B43CD8906EA85052B43838004835B
:1025C000CD880587028470BD70B5002400220023E9
:1025D000058C4FF6FF6635400584028C8388848B1A
:1025E0004FF68F752C404FF6FC752C400D882C4310
:1025F0004FF6FF552A400D894FF6FF7606EA05256E
:102600002A434D8806EA05252A431F4DA84202D0D9
:10261000234DA8421DD14FF2FF752A404D894FF638
:10262000FF7606EA05252A434FF6FF352A408D88B6
:1026300006EA05252A434EF6FF752B404DF6FF7539
:102640002B408D8906EA05152B43CD8906EA051531
:102650002B4383808483CD888587028470BD70B5C9
:10266000002200230024058C4EF6FF7635400584B9
:10267000038C8488828B48F6FF752A404FF6FF450D
:102680002A400D8820E00000002C0140000400409A
:1026900000080040000C0040001000400014004002
:1026A00000340140004C0140005001400054014002
:1026B00000180040001C0040002000400040014085
:1026C00000440140004801404FF6FF7606EA052528
:1026D0002A434DF6FF752B400D8906EA05352B433D
:1026E0004D8806EA05352B43FA4DA84202D0FA4D33
:1026F000A84208D14BF6FF752C408D894FF6FF7626
:1027000006EA85152C4384808283CD88A0F840504A
:10271000038470BD828B4FF2FF331A408283828B19
:102720004FF6FF7303EA01231A4382837047F0B523
:102730000C461546002200210026078C4EF6FF7C31
:1027400007EA0C070784828B018C4FF6FF7707EAB4
:10275000043640F6FF473A404FF6FF7707EA052771
:102760003A434FF6FF7707EA03373A43D94FB84267
:102770000ED0D94FB8420BD0B0F1804F08D0D74F10
:10278000B84205D0D64FB84202D0D64FB84206D193
:102790004DF6FF77394046F48057394305E047F658
:1027A000FF57394044F48057394382830184F0BD98
:1027B000828B4FF6F3731A408283828B0A438283A3
:1027C0007047F0B50C461546002200210026078C04
:1027D0004FF6FF6C07EA0C070784828B018C4FF6DB
:1027E000FF7707EA04264FF60C773A404FF6FF775B
:1027F00007EA03172F433A43B64FB8420ED0B64FFD
:10280000B8420BD0B0F1804F08D0B44FB84205D0D9
:10281000B34FB84202D0B34FB84206D14FF6FF577C
:10282000394046F48077394305E04FF2FF5739408D
:1028300044F48077394382830184F0BD028B4FF2E8
:10284000FF331A400283028B4FF6FF7303EA012322
:102850001A4302837047F0B50C461546002200214A
:102860000026078C4FF6EF7C07EA0C070784028BE3
:10287000018C4FF6FF7707EA041640F6FF473A400F
:102880004FF6FF7707EA03373A434FF6FF7707EA39
:1028900005273A438F4FB8420ED08F4FB8420BD026
:1028A000B0F1804F08D08D4FB84205D08C4FB84260
:1028B00002D08C4FB84206D14FF6DF77394046F050
:1028C0001007394305E04FF65F77394044F01007B1
:1028D000394302830184F0BD028B4FF6F3731A4033
:1028E0000283028B0A4302837047F0B50C461546FB
:1028F00000220021068C4FF6FE773E400684028BB4
:10290000018C4FF60C7632407E1C06EA03162E43ED
:102910003243704EB0420ED06F4EB0420BD0B0F189
:10292000804F08D06D4EB04205D06D4EB04202D0FF
:102930006C4EB04206D14FF6FD76314044F00106B0
:10294000314305E04FF6F576314044F0010631435E
:1029500002830184F0BD70B505460C465D48854292
:102960000ED05D4885420BD0B5F1804F08D05B4852
:10297000854205D05A48854202D05A48854200D146
:1029800000E000BF208850B92389A28861882846CA
:10299000FFF7ABFFE1882846FFF79EFF25E0208880
:1029A00004280AD12389A28861882846FFF753FFAB
:1029B000E1882846FFF742FF17E0208808280AD15F
:1029C0002389A28861882846FFF7FBFEE188284614
:1029D000FFF7EEFE09E02389A28861882846FFF709
:1029E000A6FEE1882846FFF795FE70BD2DE9F0416F
:1029F00005460C4600260127608808B9022600E03B
:102A00000026A088012801D1022700E001272088A4
:102A1000A0B92389A28861882846FFF766FFE1886C
:102A20002846FFF759FF23893A4631462846FFF7E3
:102A300012FFE1882846FFF701FF13E02389A288EF
:102A400061882846FFF707FFE1882846FFF7F6FE72
:102A500023893A4631462846FFF747FFE188284652
:102A6000FFF73AFFBDE8F0810A884B881A438B884C
:102A70001A43CB881A430B891A434B891A438B8913
:102A80001A43A0F8442070474FF6FF71818000215F
:102A90000180C18041800172704700210180418026
:102AA0008180C180018141818181C1817047002184
:102AB00001804180012181800021C1800181704716
:102AC0000021018041808180C1800181418181811B
:102AD00070470000002C0140003401400004004019
:102AE00000080040000C004021B1028842F00102C1
:102AF000028004E002884FF6FE731A40028070479D
:102B000031B1B0F8442042F40042A0F8442005E07E
:102B1000B0F84420C2F30E02A0F8442070471AB166
:102B200083890B43838102E083898B4383817047D0
:102B30008182704741EA0203A0F8483070471AB119
:102B400083890B43838102E083898B4383817047B0
:102B500001894FF6F8721140018170470A46002141
:102B600001894FF68F73194011430181704730B5C9
:102B700004460D4629462046FFF7F0FF208940F025
:102B80000700208130BD2DE9F04104460D46164670
:102B90001F46602D06D13B46012231462046FFF7F5
:102BA0005AFE05E03B46012231462046FFF79DFED6
:102BB00029462046FFF7D2FF208940F007002081F8
:102BC000BDE8F08130B50C4600210189C9B24FF64D
:102BD000FF7505EA0325154325432943018130BDCF
:102BE0002DE9F04105460E46174698460024434617
:102BF0003A4631462846FFF7E5FF2C894FF6F87034
:102C0000044044F007044FF68F70044044F0700411
:102C10002C81BDE8F081F0B504460D4616461F46EE
:102C20003B46324629462046FFF7CCFF208940F438
:102C300080402081F0BD0185828270470A460021D4
:102C400001884FF68F731940114301807047F0B52A
:102C50000C4615461E460021002200230189028BE6
:102C6000038C4FF6F877394021434FF6FC473A4042
:102C700040F201173A434FF6DD773B404FF6FF77BE
:102C800007EA06172F433B43018102830384F0BD0B
:102C90000A460021018B4FF68F73194011430183BF
:102CA00070470A460021018B48F6FF7319404FF622
:102CB000FF7303EA02231943018370470A46002188
:102CC000818B4FF68F7319401143818370470A46F9
:102CD0000021818B48F6FF7319404FF6FF7303EA1A
:102CE000022319438183704721B1028842F0800298
:102CF000028004E002884FF67F731A40028070471A
:102D000021B1828842F00402828004E082884FF67A
:102D1000FB731A408280704721B1828842F008021A
:102D2000828004E082884FF6F7731A4082807047F1
:102D300021B1828842F00102828004E082884FF64D
:102D4000FE731A40828070470A460021018B4FF6BD
:102D5000F77319401143018370470A460021018B24
:102D60004FF2FF7319404FF6FF7303EA0223194332
:102D7000018370470A460021818B4FF6F773194093
:102D80001143818370470A460021818B4FF2FF7304
:102D900019404FF6FF7303EA0223194381837047FA
:102DA0000A460021018B4FF6FB7319401143018342
:102DB00070470A460021018B4FF6FF3319404FF64A
:102DC000FF7303EA02231943018370470A46002177
:102DD000818B4FF6FB7319401143818370470A467C
:102DE0000021818B4FF6FF3319404FF6FF7303EA42
:102DF00002231943818370470A460021018B4FF655
:102E00007F7319401143018370470A460021018BEB
:102E1000C1F30E014FF6FF7303EA02231943018346
:102E200070470A460021818B4FF67F73194011438A
:102E3000818370470A460021818BC1F30E014FF652
:102E4000FF7303EA02231943818370470A46002176
:102E5000018C4FF6FD7319401143018470470A46F7
:102E60000021018C4FF6F77319401143018470471C
:102E70000A460021018C4FF6DF7319404FF6FF73AD
:102E800003EA02131943018470470A460021018CAA
:102E90004FF67F7319404FF6FF7303EA021319438D
:102EA000018470470A460021018C4FF6FF531940F8
:102EB0004FF6FF7303EA02231943018470470A4661
:102EC0000021018C4FF2FF7319404FF6FF7303EAA4
:102ED00002231943018470470A460021018C4DF6F4
:102EE000FF7319404FF6FF7303EA0233194301845D
:102EF000704730B5002301248C40A3B2048C9C435E
:102F00000484048C02FA01F5ADB22C43048430BD74
:102F100030B5002304248C40A3B2048C9C43048469
:102F2000048C02FA01F5ADB22C43048430BD70B5B7
:102F30000346002000241846183001258D40ACB20D
:102F40001D8CA5431D8409B1082909D100EB61003E
:102F5000056825F0700505600568154305600EE0FD
:102F60000D1FC5F34E052844056825F4E0450560AE
:102F700005684FF6FF7606EA02263543056070BD08
:102F800021B1028842F00202028004E002884FF67A
:102F9000FD731A400280704721B1028842F004029A
:102FA000028004E002884FF6FB731A4002807047EB
:102FB00021B1828842F08002828004E082884FF64C
:102FC0007F731A408280704702884FF6F7731A4069
:102FD000028002880A430280704782884FF68F730E
:102FE0001A40828082880A438280704702894FF6A5
:102FF000F8731A40028102890A43028170470289EC
:103000004FF67F731A40028102890A43028170479A
:10301000818470478185704781867047018770473A
:1030200081877047A0F84010704702884FF6FF4331
:103030001A40028002880A43028070470146888E47
:1030400070470146088F70470146888F70470146D8
:10305000B1F8400070470146888C70470146088DE2
:10306000704702460020138A0B400BB1012000E09C
:1030700000207047CA430282704730B502460020E4
:1030800000230024158A05EA0103958905EA010455
:1030900013B10CB1012000E0002030BDCA43028210
:1030A0007047000010B50446FA48844208D1012157
:1030B0004015FEF79BFE00216015FEF797FE17E016
:1030C000F548844208D101210015FEF78FFE00214A
:1030D0002015FEF78BFE0BE0F048844208D1012159
:1030E000C803FEF783FE00214FF40040FEF77EFE8A
:1030F00010BD30B50246002000235068E84C204047
:103100000D790C6844EA0524204350609068E54C32
:103110002040D1E902542C434D7944EA4504204330
:103120009060D06A20F470000C7C641EE4B22343EB
:1031300040EA0350D06230BD00210160017141714D
:103140008160C16001210174704721B1826842F041
:103150000102826003E0826822F00102826070470F
:1031600021B1826842F48072826003E0826822F4B6
:1031700080728260704710B50023CBB21AB14468E8
:103180001C43446002E044689C43446010BD816875
:1031900041F0080181607047014600208A6802F012
:1031A00008020AB1012000E000207047816841F068
:1031B000040181607047014600208A6802F0040221
:1031C0000AB1012000E00020704721B1826842F47A
:1031D000A002826003E0826822F4A002826070474D
:1031E000014600208A6802F480020AB1012000E052
:1031F0000020704710B50A4600210023416821F4E1
:103200006041531E41EA4331416010BD21B1426823
:1032100042F40062426003E0426822F400624260CD
:103220007047F0B504460D4600200021092D11DD40
:10323000E068A5F10A0606EB4607072606FA07F13D
:103240008843A5F10A0606EB460603FA06F1084391
:10325000E0600CE0206905EB4507072606FA07F158
:10326000884305EB450603FA06F108432061072A67
:103270000FDA606B561E06EB86071F2606FA07F16B
:103280008843561E06EB860605FA06F1084360637E
:1032900022E00D2A0FDA206BD61F06EB86071F26C9
:1032A00006FA07F18843D61F06EB860605FA06F1F3
:1032B0000843206310E0E06AA2F10D0606EB8607E2
:1032C0001F2606FA07F18843A2F10D0606EB8606D3
:1032D00005FA06F10843E062F0BD21B1826842F4CC
:1032E0008012826003E0826822F48012826070475C
:1032F0000146C86C80B2704766484C300068704721
:1033000021B1426842F48062426003E0426822F4E4
:1033100080624260704721B1426842F4805242604C
:1033200003E0426822F48052426070470A4600215E
:10333000816821F4E04111438160704721B18268C6
:1033400042F40042826003E0826822F4004282601C
:10335000704721B1826842F40212826003E0826801
:1033600022F4021282607047014600208A6802F44B
:1033700000120AB1012000E000207047F0B50446B9
:103380001546002000220026092911DDE068A1F180
:103390000A0707EB470C072707FA0CF29043A1F145
:1033A0000A0707EB470703FA07F21043E0600CE057
:1033B000206901EB410C072707FA0CF2904301EB5F
:1033C000410703FA07F210432061A06BC0F30156D6
:1033D000EF1C06F1010CA7EB0C0707EB870C1F276E
:1033E00007FA0CF29043EF1C06F1010CA7EB0C0757
:1033F00007EB870701FA07F21043A063F0BD10B591
:103400000A4600210023816B21F44011531E41EA3A
:103410000351816310BD08B5002300930090009B09
:103420000B440093009B1A6008BD08B502460020BB
:103430000090009201F12800009B18440090009831
:10344000006880B208BD0A4600214168164B194049
:103450001143416070474162826270470A46002111
:10346000416821F01F0111434160704740B1094993
:103470000831096841F40001064A0832116007E08A
:1034800004490831096821F40001024A0832116038
:10349000704700000024014000280140003C01402A
:1034A000FFFEF0FFFDF7F1FFFFFD3FFF02460020AA
:1034B00013680B400BB1012000E000207047CA43A5
:1034C0000260704770B502460020002300240B12F2
:1034D0005568CEB205EA060415681D4015B10CB159
:1034E000012000E0002070BD00220A12D3430360D7
:1034F0007047000010B56FF00400FEF722F92E4867
:1035000000682E49B0FBF1F02D490870084600789C
:1035100000EB4001C1EBC0104FF6FF7101EAC000A3
:103520002849088010BD0146254A12784A434FF0C9
:10353000E0235A6100229A611A46126942F00102A0
:103540001A6100BF4FF0E022106900F001021AB1C9
:1035500000F48032002AF5D04FF0E022126922F008
:1035600001024FF0E0231A6100229A617047014680
:10357000144A12884A434FF0E0235A6100229A61AC
:103580001A46126942F001021A6100BF4FF0E022B0
:10359000106900F001021AB100F48032002AF5D05F
:1035A0004FF0E022126922F001024FF0E0231A618D
:1035B00000229A61704700001400002000127A0077
:1035C0009C0600209E060020014600BF704700BFF9
:1035D000694A128802F04002002AF9D0C2B2664B52
:1035E0001B1D1A80704710B5C821644802F010FEF8
:1035F00000206349088010BD10B586B00446012143
:1036000044F20400FEF7D8FB4FF40070ADF814004C
:1036100003208DF8160018208DF8170005A95948C9
:10362000FEF70EF94FF48060ADF8140004208DF819
:10363000170005A95348FEF703F925208DF800006F
:1036400003208DF801008DF8020001208DF80300A1
:103650006846FEF72CF801940020ADF80800ADF89C
:103660000A00ADF80C00ADF810000C20ADF80E000B
:1036700001A94548FEF747FC012240F22551424886
:10368000FEF7D9FC01214048FEF7C9FCFFF7ABFF6C
:1036900006B010BD10B540F225513B48FEF7B0FD15
:1036A000002839D03848FEF72BFDC4B2242C02D1B3
:1036B000002033490880324801880088401C304A85
:1036C00010802E484454007824281ED12B480079BD
:1036D0004D281AD129484079432816D10A2C14D1F3
:1036E00050212A4802F094FD2548028823492748A2
:1036F00002F017FD0120254981F8500000202049E3
:103700000880C8211D4802F083FD1D480088C82894
:1037100002DBC8201A49088010BD10B504462146B6
:10372000164802F0CDFC08B1012010BD0020FCE7D6
:1037300010B50020154981F8500081F8510081F83A
:1037400078005021114802F063FD104852300021EA
:1037500001604160018181720B3001604160018133
:1037600081725D38A0F868106A3001604160816044
:103770006A38A0F8761010BD0048004039070020D4
:10378000A20600200008014000380140C0060020C9
:103790002DE9FF5F07460D4693464FF000082E4681
:1037A000A9462C46AA4607B125B94FF0FF3004B010
:1037B000BDE8F09F4FF0000857E0781C10F80800B3
:1037C00013284CD2DFE800F01F20214B4B2223248A
:1037D000254B4B4B4B26303F2C0A13003078624967
:1037E00008700846017861A002F032FB38E0D6F894
:1037F00001005D49C1F801000846D0F8011062A03F
:1038000002F026FB2CE02BE02AE029E028E027E06C
:1038100026E025E099F8001063A002F019FB1FE0F4
:1038200064A002F015FB1BE0A17962792379A068FE
:10383000CDE90032CDE90210E378A278218862A0B8
:1038400002F006FB0CE06BA002F002FB6EA002F09F
:10385000FFFA9AF8001070A002F0FAFA00E000BF38
:1038600000BF08F1010000F0FF0838784045A4DCF3
:1038700000209CE710B56D4800783B49C1F8050071
:103880006B48007803F026FB3749C1F80900694806
:103890000088C1F80D006848006808B1012000E008
:1038A00000203149487408460078644908602E4871
:1038B000D0F801006249086010BD10B512212A48F5
:1038C00002F0A6FC10BD5F480068401C5D4908601E
:1038D00070475C4800687047012080F3138800BF80
:1038E00000BF5948006800F4E06058490843001DD3
:1038F00055490860BFF34F8F00BF00BFFEE700B51A
:10390000FFF7E1FF00BD08B50020009001216846E7
:1039100000F0A0F808BD70B505460E4600240DB9AC
:10392000601E70BD00241BE0295D4948FEF7E4FBE2
:1039300000BF80214648FEF74DFC0028F9D0022C3C
:103940000DD3285DFF280AD155214148FEF7D4FB4D
:1039500000BF80213E48FEF73DFC0028F9D0641CE2
:10396000B442E1D33046DCE7010800204576743AE2
:10397000204556454E545F706F7765725F666C6187
:1039800067202564200A00004576743A4556454E66
:10399000545F736D6F6B655F7468726573686F6C8D
:1039A000642025640A000000525353492025640A0C
:1039B000000000005452414E53504152454E545F56
:1039C00044415441200A0000574946495F4E545033
:1039D000203A205B25642D25642D25642025303276
:1039E000643A253032643A253032645D5B25645D8B
:1039F000200A00004D4F44554C4520494E464F206B
:103A00002E2E2E0A00000000574946204D4F4455E7
:103A10004C45202E2E2E0A006D6F64756C6554790E
:103A20007065203A205B25645D200A0011000020AB
:103A300010000020080000200400002000000020EA
:103A40000C000020AC0600200CED00E00000FA05A0
:103A50000048004070B504460D46002624B9F6A083
:103A600002F0F6F9701E70BD2A462146FA4802F0AF
:103A700091F90646AE4205D0F8A002F0E9F94FF000
:103A8000FF30F0E73046EEE710B504462CB9FAA057
:103A900002F0DEF94FF0FF3010BD002020606060C2
:103AA000FF20207060700020F6E770B504460D46D8
:103AB0002CB9FCA002F0CCF94FF0FF3070BD2621EC
:103AC000FE4802F0A5FB2A462146FC48801C02F075
:103AD00028FBFA484938A0F86950012180F84A10BB
:103AE000FFF7F7FEF5494939C1F86B000020E5E71B
:103AF000F8B505460C4616460DB104B12EB9F0A036
:103B000002F0A6F94FF0FF30F8BD287800F0010070
:103B100098B111212278601C81542078401C2070BB
:103B200001206B1C024600210090084601F0F7FFBF
:103B300008B1012000E0002030702878C0F3400078
:103B400088B112212278601C81542078401C20709A
:103B5000688801F026FD07463A460021012001F061
:103B6000F9FEC6F801000020CEE72DE9F041044639
:103B70000D460027002604B135B9DCA002F068F933
:103B80004FF0FF30BDE8F081FFF7A3FE064628782E
:103B90002178884203D0DFA002F05AF90127D5F836
:103BA0000100D4F80110884203D0E1A002F050F9DE
:103BB0000127687C617C884203D0E5A002F048F9C7
:103BC0000127D5F80500D4F8051088420AD0E54849
:103BD0000068301A41F27071884203D3E2A002F00B
:103BE00037F90127D4F80910D5F8090003F01EF9B8
:103BF0000AD0DC480068301A41F27071884203D361
:103C0000DFA002F025F90127D5F80D00D4F80D103A
:103C100088420AD0D3480068301A41F27071884255
:103C200003D3DEA002F014F90127012F03D1FFF71F
:103C300050FECC4908603846A4E7F8B505460C4666
:103C400005B12CB9DCA002F003F94FF0FF30F8BD4C
:103C50000020207020726D1C15F8010C23460122F3
:103C600000210090084601F0BBFF287C234601227A
:103C700000210090082001F0B3FF0121204601F04F
:103C800049FE012104F1080001F044FE6A680021A8
:103C9000012001F058FEE0702A680021012001F0A7
:103CA00052FE86B2304601F07CFCA4F80100AA68FE
:103CB0000021CD4801F054FE86B2304601F071FC7F
:103CC000A080EA686D1E0021012001F03CFE86B252
:103CD000304601F066FCE0800020B8E72DE9F047AF
:103CE00080460C4617461D46089E94F800900CB17D
:103CF00005B136B9BDA002F0ABF84FF0FF30BDE81A
:103D0000F087B8F1000F5AD114216C48263002F028
:103D10007FFAB9F1010F06D0B9F1020F12D0B9F153
:103D2000050F4AD129E0654A7F32A2F15901601C92
:103D3000FFF7DEFE012061494939087000250020A7
:103D400030603BE05D49763101F11B00FFF775FF04
:103D500078B95A48801E816FC5F80110C16FC5F847
:103D6000051090F880006872032028700A203060E7
:103D700002E04FF0FF30C2E720E07A1E611C4F489E
:103D80002A3802F0CEF9781E4C494939C1F83D0075
:103D900010214A48493890F86F20703081547038AB
:103DA00090F86F00401C4549493981F86F000320A5
:103DB000087000250020306000E000BF00BF002038
:103DC0009DE72DE9F04F91B006468B461746994680
:103DD0000020109082468046002501ACBBF1000F08
:103DE00006D18EA002F034F8681E11B0BDE8F08F45
:103DF000B9F1010F06D196F8088008F106003844A1
:103E000085B201E0781D85B22B464246394689A02D
:103E100002F01EF8FF2004F8010B04F8010B281231
:103E200004F8010B04F8015B3079401C04F8010B25
:103E3000707904F8010B11E14552523A2067697A12
:103E400050757444617461206275662069732065E1
:103E50006D707479200A00004D0900204552523AD5
:103E6000204661696C656420746F207262577269C4
:103E70007465200A000000004552523A2067697AB2
:103E800050726F746F636F6C48656164496E6974DA
:103E9000206865616420697320656D707479200AFB
:103EA000000000004552523A206461746120697339
:103EB00020656D707479200A000000005C08002005
:103EC00067697A44617461506F696E7432457665D2
:103ED0006E74204572726F72202C20496C6C65677D
:103EE000616C20506172616D0A00000067697A435D
:103EF0006865636B5265706F7274204572726F7281
:103F0000202C20496C6C6567616C20506172616D7A
:103F10000A00000076616C7565706F7765725F6688
:103F20006C6167204368616E6765640A0000000089
:103F300076616C7565736D6F6B655F7468726573C0
:103F4000686F6C64204368616E6765640A000000F6
:103F500076616C7565736D6F6B65204368616E6724
:103F600065640A00B006002076616C756568756D41
:103F70006964697479204368616E6765640A00004A
:103F800076616C756574656D706572617475726566
:103F9000204368616E6765640A00000076616C7595
:103FA00065736D6F6B655F64617461204368616EFA
:103FB0006765640A0000000067697A4461746150B3
:103FC0006F696E7473325265706F7274446174619C
:103FD000204572726F72202C20496C6C6567616C91
:103FE00020506172616D0A00CDCCCC3D67697A507A
:103FF000726F746F636F6C49737375656450726F21
:1040000063657373204572726F72202C20496C6C4B
:104010006567616C20506172616D0A005B455252A8
:104020005D202064617461204973204E756C6C20A2
:104030000A0000006C656E203D202564202C207352
:104040004469644C656E203D202564202C646174B5
:10405000615F6C656E203D2025640A00002004F835
:10406000010B04F8019B4FF0080AB9F1010F0DD1C3
:1040700004F8018B0AF1010A01A901EB0A0042468A
:1040800006F1090102F04DF8C244444437B101A9D8
:1040900001EB0A003A46594602F043F8291D01A8EF
:1040A00001F06CFA0146E81C01AA1154291D01A86F
:1040B000FFF731FC10901098002806DAEEA0109956
:1040C00001F0C6FE6FF001008FE600208DE6F0B52E
:1040D00085B005460E46174600242EB9ECA001F027
:1040E000B7FE601E05B0F0BD6846FFF7CDFC0520A9
:1040F0008DF80400F04890F84110D0F84100401CC1
:10410000ED4AC2F84100C8B28DF805008DF808509C
:104110000F2001F046FAADF802003A4631460DF1A3
:10412000090001F0FEFF1321684601F027FA8DF81F
:10413000120013216846FFF7EEFB0446002C06DA56
:104140002146DEA001F084FE6FF00100CAE71321D2
:104150006846FFF7AAFC2046C4E770B50546FFF79E
:10416000B8FB0446D449DA312846FFF7FEFC0128A3
:1041700014D1D9A001F06CFECF49BF312846FFF71A
:104180005CFD28B90922CC49BF310420FFF79FFF0D
:1041900012222946C848DA3001F0C3FFD448B4FBE4
:1041A000F0F100FB1140D0B9D2480068A04216D00F
:1041B000D1A001F04DFEC049BF312846FFF73DFDBB
:1041C00028B90922BC49BF310420FFF780FF122221
:1041D0002946B948DA3001F0A4FFC648046070BD32
:1041E0002DE9FE4F80460E4617464FF0000B00208B
:1041F000029081468246002534460090B8F1000FB7
:1042000001D006B137B9C2A001F022FE4FF0FF3055
:10421000BDE8FE8F404601F041FD00F0FF0ABAF113
:10422000000F02D14FF0FF30F2E74FF000095DE0E0
:10423000012201A9404601F05CFD8346BBF1000F5D
:1042400052D0BF480078FF281FD19DF80400FF28F6
:104250001BD1BC48007848B9FF2020706070022054
:10426000B94908800120B749087034E0B648008891
:10427000042830DDB4480088A8422CD0FF202070EC
:1042800060700220B049088025E0AD480078FF2822
:1042900003D19DF8040055281DD0AA4800780128B4
:1042A00019D19DF80400A84909886054A6480088DF
:1042B000401CA54908800846008804280BDD0094AE
:1042C000009C608801F06DF9001D85B29E48008851
:1042D000A84200D10CE09DF80400994908709B4861
:1042E0000078401C9949087009F10109D1459FDB0C
:1042F00000BF95480088042823DD93480088A84221
:104300001FD191480188204601F038F902908E486B
:104310000088401E215C029881420FD12A46214626
:10432000304601F0FEFE3D80002086490870864937
:104330000880864908708249087069E76FF00100BB
:1043400066E7012064E710B500245B4890F84A0056
:1043500000B910BD7EA001F07BFD5748B0F8691090
:104360004B30FFF7D8FA04465348B0F86900A04232
:1043700002D07FA001F06CFDFFF7ABFA4E49C1F807
:104380006B0000BFE5E770B504464B4D4B3534B9C3
:10439000AFF2F04001F05CFD4FF0FF3070BD2879C6
:1043A000401C2179884204D126214348493001F03C
:1043B0002FFF0020F2E73EB50446002524B972A085
:1043C00001F046FD681E3EBD2068009060680190C7
:1043D0009DF80400401CC0B28DF80400052001F0D7
:1043E000E0F8ADF802000921684601F0C7F88DF841
:1043F000080009216846FFF78EFA0546002D03DA0A
:1044000029462EA001F024FD2846DCE710B52A48F5
:1044100090F84A00012827D1274890F8490002283F
:104420001DDAFFF756FA2449D1F86B10401AC82854
:104430001AD9FFF74EFA04461F4890F84930D0F8D1
:104440006B2021465BA001F003FDFFF77CFF1A48BB
:1044500090F84900401C184981F8490004E02621E1
:104460001548493001F0D4FE10BD30B59DB004466A
:10447000002504B9B2E0B7E0756172742077726903
:104480007465206572726F72202564200A00000036
:1044900067697A5265706F72744461746120457205
:1044A000726F72202C20496C6C6567616C205061C2
:1044B00072616D0A00000000130800204552523A54
:1044C0002075617274207772697465206572726FED
:1044D00072202564200A00006368616E6765642CA1
:1044E000207265706F727420646174610A0000004C
:1044F000C0270900B4060020496E666F3A203630A6
:104500003053207265706F727420646174610A00A8
:1045100067697A50726F746F636F6C4765744F6E22
:10452000655061636B6574204572726F72202C2038
:10453000496C6C6567616C20506172616D0A0000A6
:10454000BC060020B8060020BA060020BD060020E8
:104550005761726E696E673A2074696D656F757424
:104560002C20726573656E642064617461200A009A
:104570004552523A20726573656E642064617461BD
:10458000206572726F720A004552523A2067697A4A
:1045900050726F746F636F6C436F6D6D6F6E4163BC
:1045A0006B206461746120697320656D707479207B
:1045B0000A0000005761726E696E673A67697A5047
:1045C000726F746F636F6C526573656E644461746F
:1045D000612025642025642025640A00EDA001F0F7
:1045E00037FC681E1DB030BD6846FFF74DFA02204B
:1045F0008DF8040060798DF80500F2A103C9CDE9BA
:104600000201F3A103C9CDE90401F4A103C9CDE975
:104610000801F5A103C9CDE906012022F5A10AA8E8
:1046200001F0C4FD2022FCA10DF1520001F079FD42
:104630000020CDF84A00CDF84E009DF851008DF8CD
:1046400051009DF8510040F002018DF851100020FA
:1046500000F0A7FFADF848006F2000F0A2FFADF812
:1046600002007321684600F089FF8DF87200732103
:104670006846FFF750F90546002D04DA2946AFF2E7
:10468000C41001F0E5FB2846ACE7FEB504460E4633
:10469000002524B9E9A001F0DBFB681EFEBD6846D9
:1046A000FFF7F2F912208DF8040060798DF805000B
:1046B000062000F076FFADF802008DF808600A21B0
:1046C000684600F05BFF8DF809000A216846FFF795
:1046D00022F90546002D04DA2946AFF2202001F028
:1046E000B7FB2846DAE770B5044625462CB9DEA0AC
:1046F00001F0AEFB4FF0FF3070BDE048A9680160EB
:10470000E9684160298A0181A97C8172A0F1ED01EB
:10471000B1F8ED0000F045FFD849ED39A1F8ED0002
:10472000D1F8F50000F04AFFD449ED39C1F8F500A1
:104730000E21D248ED3890F897209830815498385F
:1047400090F89700401CCD49ED3981F8970004207E
:1047500008700020D0E710B5FFF7BBF8044600BF93
:10476000FFF7B7F8001BB0F5167FF9D9FFF7B4F8DB
:1047700010BD10B504462CB9C1A001F069FB4FF083
:10478000FF3010BD208900F00CFF2081C848007860
:10479000C0F38000217AC1F3800188425ED0207A84
:1047A000C0F3800000282DD0207A00F0010088B1ED
:1047B0000021B248ED3890F8832084308154843849
:1047C00090F88300401CAD49ED3981F88300B9A011
:1047D00001F03EFB207AC0F3400000283ED00121CA
:1047E000A648ED3890F8832084308154843890F8BE
:1047F0008300401CA149ED3981F88300B5A001F088
:1048000027FB2BE0207A00F0010088B100219B48B3
:10481000ED3890F8832084308154843890F88300F8
:10482000401C9649ED3981F88300A2A001F010FBED
:10483000207AC0F3400088B102219048ED3890F80A
:10484000832084308154843890F88300401C8B4945
:10485000ED3981F88300A6A001F0FAFA94480078B7
:10486000C0F3C000217AC1F3C001884230D0207A61
:10487000C1088F48007861F3C3008D490870207A21
:10488000C0F3C00090B103217C48ED3890F883203C
:1048900084308154843890F88300401C7749ED3986
:1048A00081F8830099A001F0D3FA11E00421734844
:1048B000ED3890F8832084308154843890F8830058
:1048C000401C6E49ED3981F8830098A001F0C0FAD0
:1048D00077480078C0F30010217AC1F300118842B4
:1048E00030D0207A01097248007861F304107049D1
:1048F0000870207AC0F3001090B105215F48ED38B0
:1049000090F8832084308154843890F88300401CD0
:104910005A49ED3981F883008CA001F099FA11E031
:1049200006215648ED3890F883208430815484382D
:1049300090F88300401C5149ED3981F883008BA029
:1049400001F086FA5A480078C0F34010217AC1F38A
:10495000401188421CD0207A41095548007861F303
:10496000451053490870207AC0F3401078B10721F0
:104970004248ED3890F8832084308154843890F890
:104980008300401C3D49ED3981F8830000E103E1DB
:1049900012E1000067697A50726F746F636F6C4741
:1049A0006574446576696365496E666F2045727209
:1049B0006F72202C20496C6C6567616C20506172AD
:1049C000616D0A003030303030303034000000008B
:1049D000303030303030303200000000303330338F
:1049E0003030303000000000303330313031303082
:1049F000000000006233346336623662343731645B
:104A000034316131616532636365376363306338C4
:104A10003861363100000000663137333631653594
:104A2000643065643435626561363834383938311C
:104A300031326530363464340000000067697A50E2
:104A4000726F746F636F6C4572726F72436D642026
:104A50004572726F72202C20496C6C6567616C2006
:104A6000506172616D0A00004552523A204E545016
:104A700020697320656D707479200A000009002098
:104A800067697A50726F746F636F6C4D6F64756C89
:104A900065537461747573204572726F72202C2097
:104AA000496C6C6567616C20506172616D0A000031
:104AB000BE0600204F6E426F617264696E673A20D5
:104AC000536F66744150206F7220576562206D6F7E
:104AD00064650A004F6E426F617264696E673A20C6
:104AE0004169724C696E6B206D6F64650A0000004D
:104AF0004F6E426F617264696E673A2053746174DD
:104B0000696F6E206D6F64650A0000005769466921
:104B1000207374617475733A20696E2062696E64E3
:104B2000696E67206D6F64650A0000005769466909
:104B3000207374617475733A206F75742062696EA6
:104B400064696E67206D6F64650A00005769466985
:104B5000207374617475733A20636F6E6E6563744D
:104B6000656420726F757465720A00005769466942
:104B7000207374617475733A20646973636F6E6E29
:104B8000656374656420726F757465720A00000055
:104B9000F0A001F05DF90FE00821F54890F88320BE
:104BA00084308154843890F88300401CF04981F8A7
:104BB0008300F0A001F04CF9F6484078C0F3C00142
:104BC000607AC0F3C00081422CD0607AC108F148FD
:104BD000407861F3C300EF494870607AC0F3C000C9
:104BE00080B10B21E24890F88320843081548438CE
:104BF00090F88300401CDE4981F88300E6A001F0B4
:104C000027F90FE00C21DA4890F883208430815492
:104C1000843890F88300401CD54981F88300E5A0D2
:104C200001F016F9DB484078C0F30011607AC0F358
:104C3000001081422CD0607A0109D648407861F397
:104C40000410D4494870607AC0F3001080B1092183
:104C5000C74890F8832084308154843890F88300CA
:104C6000401CC34981F88300DAA001F0F1F80FE09D
:104C70000A21BF4890F8832084308154843890F80A
:104C80008300401CBA4981F88300D9A001F0E0F804
:104C90000D21B74890F8832084308154843890F8EF
:104CA0008300401CB24981F88300607A00F007005D
:104CB00081F8EC00084690F8EC10D4A001F0C8F898
:104CC0000220AB49087000205BE510B53C20D349B9
:104CD0000860D348C860084600F0C2FF18B9D1A0E8
:104CE00001F0B6F802E0D4A001F0B2F84FF49D71E3
:104CF0009F4801F08DFA10BD30B587B005460024FD
:104D0000062D7DD2DFE805F003316193C1F001A8E3
:104D1000FEF7BAFE0B208DF80800954890F8411078
:104D2000D0F84100401C924AC2F84100C8B28DF848
:104D30000900052000F035FCADF80600092101A8A6
:104D400000F01CFC8DF80C00092101A8FEF7E3FD22
:104D50000446002C04DA2146AFF6A00001F078F8F2
:104D6000092101A8FEF7A1FEF0E004A8FEF78CFEE1
:104D700009208DF814007E4890F84110D0F84100C9
:104D8000401C7B4AC2F84100C8B28DF815008DF86E
:104D90001850062000F005FCADF812000A2104A806
:104DA00000F0ECFB8DF819000A2104A8FEF7B3FD12
:104DB0000446002C04DA2146AFF6001001F048F852
:104DC0000A2104A8FEF771FEC0E004A8FEF75CFE0D
:104DD00009208DF81400664890F84110D0F8410081
:104DE000401C634AC2F84100C8B28DF815008DF826
:104DF0001850062000F0D5FBADF812000A2100E0A3
:104E0000A0E004A800F0BAFB8DF819000A2104A85C
:104E1000FEF781FD0446002C04DA2146AFF664104B
:104E200001F016F80A2104A8FEF73FFE8EE001A863
:104E3000FEF72AFE13208DF808004D4890F8411027
:104E4000D0F84100401C4A4AC2F84100C8B28DF86F
:104E50000900052000F0A5FBADF80600092101A816
:104E600000F08CFB8DF80C00092101A8FEF753FD22
:104E70000446002C04DA2146AFF6C01000F0E8FF2B
:104E8000092101A8FEF711FE60E001A8FEF7FCFD74
:104E900015208DF80800364890F84110D0F84100F0
:104EA000401C334AC2F84100C8B28DF80900052001
:104EB00000F077FBADF80600092101A800F05EFBC9
:104EC0008DF80C00092101A8FEF725FD0446002CF1
:104ED00004DA2146AFF61C2000F0BAFF092101A830
:104EE000FEF7E3FD32E0FFE701A8FEF7CDFD292044
:104EF0008DF808001E4890F84110D0F84100401C81
:104F00001B4AC2F84100C8B28DF80900052000F024
:104F100048FBADF80600092101A800F02FFB8DF831
:104F20000C00092101A8FEF7F6FC0446002C04DA67
:104F30002146AFF6782000F08BFF092101A8FEF78B
:104F4000B4FD03E041A000F083FF00BF00BF204696
:104F500007B030BD57694669207374617475733A40
:104F600020636F6E6E6563746564206D326D0A0038
:104F70001308002057694669207374617475733A89
:104F800020646973636F6E6E6563746564206D324F
:104F90006D0A0000BE0600205769466920737461DF
:104FA0007475733A2061707020636F6E6E65637400
:104FB0000A00000057694669207374617475733A7A
:104FC000206E6F2061707020636F6E6E6563740A6F
:104FD0000000000057694669207374617475733A64
:104FE00020696E2074657374206D6F64650A00001B
:104FF00057694669207374617475733A206F7574CC
:105000002074657374206D6F64650A0052535349B0
:10501000206973202564200A000000004D0900204B
:105020005D09002072624372656174652053756387
:1050300063657373200A0000726243726561746570
:10504000204661696C64200A000000004552523A13
:10505000204366674D6F6465206572726F72210A26
:10506000000000003EB500246846FEF70DFD172045
:105070008DF80400ED4890F84110D0F84100401C34
:10508000EA4AC2F84100C8B28DF80500052000F0D8
:1050900088FAADF802000921684600F06FFA8DF831
:1050A000080009216846FEF736FC0446002C03DAA6
:1050B0002146DFA000F0CCFE09216846FEF7F5FC92
:1050C0003EBD3EB500246846FEF7DEFC21208DF88B
:1050D0000400D64890F84110D0F84100401CD34A53
:1050E000C2F84100C8B28DF8050000208DF8080014
:1050F000062000F056FAADF802000A21684600F0DA
:105100003DFA8DF809000A216846FEF704FC0446C2
:10511000002C03DA2146C6A000F09AFE0A21684658
:10512000FEF7C3FC3EBD70B5044625462CB9C8A0A9
:1051300000F08EFE4FF0FF3070BD412205F10801F6
:10514000BA48F93000F0EDFF0F21B84890F8AB20D5
:10515000AC308154AC3890F8AB00401CB34981F8B6
:10516000AB00052008700020E6E72DE9F04192B081
:10517000054600260020029001900024804600276A
:1051800035B9B7A000F064FE601E12B0BDE8F08132
:10519000FFF73CF902AAA549491CBB48FFF720F8D4
:1051A0000646002E72D1B9A000F052FE9F4C641C3E
:1051B00020790F284FD00ADC0E2873D2DFE800F0E8
:1051C0007216721A7272433872724472453C182811
:1051D00052D006DC112847D0142846D0162861D1B9
:1051E00034E0222854D02A285CD130E02046FFF752
:1051F0003CF95FE0E279A179A9A000F029FE01A8BD
:10520000009007F10900BDF808301A1A87480930E4
:10521000C11903AB4046FEF761FD40B9E37903A92C
:105220002046019AFEF7CDFDA1A000F011FE41E05D
:105230002046FFF7C0F83DE02046FFF7BCF82046C7
:10524000FFF797FA36E000BF00BF00BF00BF20465F
:10525000FFF799F82EE02046FFF7ADF897A000F091
:10526000F7FDFFF778FA25E024E02046FFF78BF8FA
:1052700097A000F0EDFD1DE02046FFF784F82046E2
:10528000FFF731FA9AA000F0E3FD13E013E009E024
:105290002046FFF778F82046FFF745FF9AA000F078
:1052A000D7FD07E002212046FFF7EFF99DA000F0AF
:1052B000CFFD00BF0EE016F1020F0BD15B4C641C5A
:1052C00001212046FFF7E1F99CA000F0C1FD6FF03D
:1052D00001005AE75548007806284BD2DFE800F075
:1052E0004A0312212C3B0020504908701222C83179
:1052F000A1F15900FEF74CFA14214C486F3000F030
:1053000087FF38E00020494908700122EC31A1F103
:105310006900FEF73DFA14214448833000F078FF1D
:1053200029E00020414908700846D0F83D201F318F
:105330006F30FEF72DFA1EE000203C4908700C2269
:10534000ED31A1F15600FEF723FA142137489730CA
:1053500000F05EFF0FE00020344908704122F9316F
:10536000A1F14E00FEF714FA41213048AB3000F0B5
:105370004FFF00E000BF00BF2846FEF7EEFE002012
:1053800003E72DE9F04188B006460F464FF00008CC
:105390006C46B81D85B23EB96EA000F059FD4FF0C5
:1053A000FF3008B0BDE8F081FF2004F8010B04F8DD
:1053B000010B281204F8010B04F8015B052004F826
:1053C000010B1A4890F84110D0F84100401C174AD0
:1053D000C2F8410004F8011B002004F8010B04F896
:1053E000010B062004F8010B3A4631460DF1090085
:1053F00000F097FE291D684600F0C0F80146E81C41
:105400000DF80010291D6846FEF785FA8046B8F1B0
:10541000000F04DA4146AFF65C7000F019FD291D5B
:105420006846FEF742FB0020BBE70000130800209F
:105430004552525B4E54505D3A207561727420772C
:1054400072697465206572726F72202564200A008B
:105450004E545020697320656D707479200A0000E5
:1054600047697A7769747348616E646C6520457228
:10547000726F72202C20496C6C6567616C205061E2
:1054800072616D0A000000004D090020476574201C
:105490004F6E65205061636B6574210A0000000047
:1054A000666C6167202578202578200A00000000BE
:1054B00041636B44617461203A200A007265706F29
:1054C00072743A4D4355207265626F6F74210A0001
:1054D00041636B2050524F44554354494F4E5F4DEA
:1054E0004F44452073756363657373200A000000A1
:1054F00041636B204745545F555454207375636373
:10550000657373200A00000041636B204745545FB8
:105510004D6F64756C652073756363657373200AE2
:10552000000000004552523A20636D6420636F64AE
:1055300065206572726F72210A0000004552523A6E
:1055400020636865636B2073756D206572726F727E
:10555000210A00005B4552525D2067697A776974C1
:1055600073506173737468726F75676844617461B6
:10557000204572726F72200A0000000010B50246CA
:105580000024002302B109B9002010BD022303E06A
:10559000D05C2044C4B25B1C481E9842F8D8204618
:1055A000F3E701B581B000200090694601AA507868
:1055B000087010784870BDF800000CBD0146080660
:1055C00001F47F4240EA022001F47F0240EA122007
:1055D00040EA1160704710B502460024302A05DB0E
:1055E000392A03DCA2F13000C3B20EE0412A05DB08
:1055F000462A03DCA2F13700C3B206E0612A04DBCD
:10560000662A02DCA2F15700C3B2302905DB392932
:1056100003DCA1F13000C4B20EE0412905DB4629CC
:1056200003DCA1F13700C4B206E0612904DB66297E
:1056300002DCA1F15700C4B204EB0310C0B210BDEC
:1056400070B5044600250026204600F04BFD0646B6
:105650000CB9681E70BD002505E0605D302801D0E2
:105660000020F7E76D1CB542F7D30120F2E72DE9E2
:10567000F043034600BF002500240026002701292F
:1056800001D002290DD1A3F1010C4FF06408BCFB3D
:10569000F8F4BCFBF8F908FB19C501F10C06174634
:1056A00009E04FF0640CB3FBFCF4B3FBFCF80CFB1B
:1056B00018350E46174606F1010C4FF01A080CFB80
:1056C00008FC4FF00A08BCFBF8FC05EB950808EB5A
:1056D00094084FF0020909FB1488C444BC44ACF19F
:1056E0000100002806DB4FF0070C90FBFCF80CFBD8
:1056F000180C07E04FF0070C90FBFCF80CFB180CA3
:105700000CF1070C6046BDE8F08301460A46C81755
:1057100001EB90708010A1EB800070B9642091FBC8
:10572000F0F300FB131030B94FF4C87091FBF0F3A5
:1057300000FB131008B9012070470020FCE710B5EA
:1057400004462046FFF7E1FF10B14FF4B77010BDDB
:1057500040F26D10FBE72DE9F04190B080460E4617
:1057600040F2B2753022694901A800F01FFD3446AD
:1057700004F5E14400BF11E02846FFF7E0FF0746CB
:1057800040F2A3207843B4EBC01F06D340F2A3201D
:105790007843A4EBC0146D1C00E001E0002CEBD1B9
:1057A00000BFA8B2ADF83400002518E0BDF8340001
:1057B000FFF7ABFF08B11D20029001A850F82500AB
:1057C00040F2A3214843B4EBC01F07D301A850F80F
:1057D00025004843A4EBC0146D1C00E001E0002C40
:1057E000E4D100BF1C200290681CC0B28DF83600C6
:1057F000012506E04648844202D3241A6D1C00E0CD
:1058000001E0002CF6D100BFE8B28DF837004FF46C
:105810006160B4FBF0F0C0B28DF838004FF4616005
:10582000B4FBF0F100FB11403C21B0FBF1F0C0B241
:105830008DF839003C20B4FBF0F100FB11408DF8ED
:105840003A00CDF83B600D98C8F800000E98C8F8F3
:105850000400BDF83C00A8F808009DF83E0088F858
:105860000A0010B0BDE8F0812DE9F05F80460E46D9
:10587000914600241CE016F814A06000401C16F8A5
:1058800000B0504600F0D4FA3038C5B2092D01DD21
:10589000E81FC5B2584600F0CBFA3038C7B2092F1E
:1058A00001DDF81FC7B207EB051008F80400641CFF
:1058B0004C45E0DBBDE8F09FF0B5034600201EE05C
:1058C0000E5CF71706EB17773F1107F130050E5CFA
:1058D000F71706EB17773F11A6EB07173037FCB227
:1058E000392D01DDEE1DF5B2392C01DDE61DF4B2D6
:1058F00003F81050012606EB40069C55401C9042D0
:10590000DEDB002603F81260F0BD0000187A000804
:105910008051010030B502460B46002100240025CD
:105920000AB9481E30BD002108E0545C581A401ED8
:10593000155C5554581A401E1454491CB1EB530FB2
:10594000F3D30020EEE710B503460020541AB4FB51
:10595000F3F010BD10B50346002002FB031010BD8C
:105960002DE9F04704460E461546002731462846E5
:1059700001F090FB8146214601F096F9804601F046
:1059800089FA07463846BDE8F0872DE9F047044616
:105990000E4615460027284601F09CFA814621460E
:1059A00001F0ACFA8046314601F010F9074638465E
:1059B000BDE8F087024612B102F0070028B90829B5
:1059C00001D8002070470120FCE702F00700C0F179
:1059D0000800884201D30020F4E70120F2E72DE916
:1059E000F0470546884614461E464FF00009CA4651
:1059F0000027002314B9581EBDE8F087EB08414684
:105A00002846FFF7D7FF07463FB9E05C05F00701DE
:105A100006FA01F10843E0541DE0012F1BD1F0B25A
:105A200005F00701C1F1080140FA01F905F007008E
:105A3000C0F10801FF20084100EA060A581C205C5A
:105A400040EA0900591C6054E05C05F007010AFABD
:105A500001F10843E0540020CEE72DE9F04F8FB06C
:105A600004460F4690461D460026B246B146B34650
:105A700000200E90B8F1000F00D025B94FF0FF3094
:105A80000FB0BDE8F08F4FEAD4092A46414601A87D
:105A900000F047FB012D09D9294601A8FFF73AFF7D
:105AA000B0F1FF3F02D14FF0FF30E9E73946204621
:105AB000FFF780FF8246BAF1000F0CD101A810F861
:105AC000090004F007010841C7F10802FF21114154
:105AD0000840064321E0BAF1010F1ED101A909F1E6
